{
  "contractName": "AMLContract",
  "abi": [
    {
      "anonymous": false,
      "inputs": [
        {
          "indexed": true,
          "internalType": "uint256",
          "name": "id",
          "type": "uint256"
        },
        {
          "indexed": false,
          "internalType": "string",
          "name": "transactionId",
          "type": "string"
        },
        {
          "indexed": false,
          "internalType": "string",
          "name": "customerId",
          "type": "string"
        },
        {
          "indexed": false,
          "internalType": "string",
          "name": "customerName",
          "type": "string"
        },
        {
          "indexed": false,
          "internalType": "string",
          "name": "customerAccount",
          "type": "string"
        },
        {
          "indexed": false,
          "internalType": "string",
          "name": "recipientName",
          "type": "string"
        },
        {
          "indexed": false,
          "internalType": "string",
          "name": "recipientAccount",
          "type": "string"
        },
        {
          "indexed": false,
          "internalType": "uint256",
          "name": "amount",
          "type": "uint256"
        },
        {
          "indexed": false,
          "internalType": "bool",
          "name": "flagged",
          "type": "bool"
        },
        {
          "indexed": false,
          "internalType": "uint256",
          "name": "timestamp",
          "type": "uint256"
        }
      ],
      "name": "TransactionRecorded",
      "type": "event"
    },
    {
      "inputs": [],
      "name": "transactionCount",
      "outputs": [
        {
          "internalType": "uint256",
          "name": "",
          "type": "uint256"
        }
      ],
      "stateMutability": "view",
      "type": "function",
      "constant": true
    },
    {
      "inputs": [
        {
          "internalType": "uint256",
          "name": "",
          "type": "uint256"
        }
      ],
      "name": "transactions",
      "outputs": [
        {
          "internalType": "uint256",
          "name": "id",
          "type": "uint256"
        },
        {
          "internalType": "string",
          "name": "transactionId",
          "type": "string"
        },
        {
          "internalType": "string",
          "name": "customerId",
          "type": "string"
        },
        {
          "internalType": "string",
          "name": "customerName",
          "type": "string"
        },
        {
          "internalType": "string",
          "name": "customerAccount",
          "type": "string"
        },
        {
          "internalType": "string",
          "name": "recipientName",
          "type": "string"
        },
        {
          "internalType": "string",
          "name": "recipientAccount",
          "type": "string"
        },
        {
          "internalType": "uint256",
          "name": "amount",
          "type": "uint256"
        },
        {
          "internalType": "bool",
          "name": "flagged",
          "type": "bool"
        },
        {
          "internalType": "uint256",
          "name": "timestamp",
          "type": "uint256"
        }
      ],
      "stateMutability": "view",
      "type": "function",
      "constant": true
    },
    {
      "inputs": [
        {
          "internalType": "string",
          "name": "_transactionId",
          "type": "string"
        },
        {
          "internalType": "string",
          "name": "_customerId",
          "type": "string"
        },
        {
          "internalType": "string",
          "name": "_customerName",
          "type": "string"
        },
        {
          "internalType": "string",
          "name": "_customerAccount",
          "type": "string"
        },
        {
          "internalType": "string",
          "name": "_recipientName",
          "type": "string"
        },
        {
          "internalType": "string",
          "name": "_recipientAccount",
          "type": "string"
        },
        {
          "internalType": "uint256",
          "name": "_amount",
          "type": "uint256"
        },
        {
          "internalType": "bool",
          "name": "_flagged",
          "type": "bool"
        }
      ],
      "name": "recordTransaction",
      "outputs": [],
      "stateMutability": "nonpayable",
      "type": "function"
    },
    {
      "inputs": [
        {
          "internalType": "uint256",
          "name": "_id",
          "type": "uint256"
        },
        {
          "internalType": "bool",
          "name": "_flagged",
          "type": "bool"
        }
      ],
      "name": "updateFlag",
      "outputs": [],
      "stateMutability": "nonpayable",
      "type": "function"
    }
  ],
  "bytecode": "0x608060405234801561001057600080fd5b50610e31806100206000396000f3fe608060405234801561001057600080fd5b506004361061004c5760003560e01c80639ace38c214610051578063b77bf6001461008a578063cab29315146100a8578063e8884528146100c4575b600080fd5b61006b6004803603810190610066919061092b565b6100e0565b6040516100819a99989796959493929190610b19565b60405180910390f35b610092610471565b60405161009f9190610afe565b60405180910390f35b6100c260048036038101906100bd9190610954565b610477565b005b6100de60048036038101906100d991906107e9565b6104fa565b005b600160205280600052604060002060009150905080600001549080600101805461010990610cb4565b80601f016020809104026020016040519081016040528092919081815260200182805461013590610cb4565b80156101825780601f1061015757610100808354040283529160200191610182565b820191906000526020600020905b81548152906001019060200180831161016557829003601f168201915b50505050509080600201805461019790610cb4565b80601f01602080910402602001604051908101604052809291908181526020018280546101c390610cb4565b80156102105780601f106101e557610100808354040283529160200191610210565b820191906000526020600020905b8154815290600101906020018083116101f357829003601f168201915b50505050509080600301805461022590610cb4565b80601f016020809104026020016040519081016040528092919081815260200182805461025190610cb4565b801561029e5780601f106102735761010080835404028352916020019161029e565b820191906000526020600020905b81548152906001019060200180831161028157829003601f168201915b5050505050908060040180546102b390610cb4565b80601f01602080910402602001604051908101604052809291908181526020018280546102df90610cb4565b801561032c5780601f106103015761010080835404028352916020019161032c565b820191906000526020600020905b81548152906001019060200180831161030f57829003601f168201915b50505050509080600501805461034190610cb4565b80601f016020809104026020016040519081016040528092919081815260200182805461036d90610cb4565b80156103ba5780601f1061038f576101008083540402835291602001916103ba565b820191906000526020600020905b81548152906001019060200180831161039d57829003601f168201915b5050505050908060060180546103cf90610cb4565b80601f01602080910402602001604051908101604052809291908181526020018280546103fb90610cb4565b80156104485780601f1061041d57610100808354040283529160200191610448565b820191906000526020600020905b81548152906001019060200180831161042b57829003601f168201915b5050505050908060070154908060080160009054906101000a900460ff1690806009015490508a565b60005481565b60008211801561048957506000548211155b6104c8576040517f08c379a00000000000000000000000000000000000000000000000000000000081526004016104bf90610ade565b60405180910390fd5b806001600084815260200190815260200160002060080160006101000a81548160ff0219169083151502179055505050565b60008081548092919061050c90610ce6565b9190505550604051806101400160405280600054815260200189815260200188815260200187815260200186815260200185815260200184815260200183815260200182151581526020014281525060016000805481526020019081526020016000206000820151816000015560208201518160010190805190602001906105959291906106b4565b5060408201518160020190805190602001906105b29291906106b4565b5060608201518160030190805190602001906105cf9291906106b4565b5060808201518160040190805190602001906105ec9291906106b4565b5060a08201518160050190805190602001906106099291906106b4565b5060c08201518160060190805190602001906106269291906106b4565b5060e082015181600701556101008201518160080160006101000a81548160ff02191690831515021790555061012082015181600901559050506000547f8b0af3d6c40a2062b98386b439c40cf59fefa9fd72cf890a0611dd7c1e35a6a38989898989898989426040516106a299989796959493929190610a27565b60405180910390a25050505050505050565b8280546106c090610cb4565b90600052602060002090601f0160209004810192826106e25760008555610729565b82601f106106fb57805160ff1916838001178555610729565b82800160010185558215610729579182015b8281111561072857825182559160200191906001019061070d565b5b509050610736919061073a565b5090565b5b8082111561075357600081600090555060010161073b565b5090565b600061076a61076584610c10565b610bdf565b90508281526020810184848401111561078257600080fd5b61078d848285610c72565b509392505050565b6000813590506107a481610dcd565b92915050565b600082601f8301126107bb57600080fd5b81356107cb848260208601610757565b91505092915050565b6000813590506107e381610de4565b92915050565b600080600080600080600080610100898b03121561080657600080fd5b600089013567ffffffffffffffff81111561082057600080fd5b61082c8b828c016107aa565b985050602089013567ffffffffffffffff81111561084957600080fd5b6108558b828c016107aa565b975050604089013567ffffffffffffffff81111561087257600080fd5b61087e8b828c016107aa565b965050606089013567ffffffffffffffff81111561089b57600080fd5b6108a78b828c016107aa565b955050608089013567ffffffffffffffff8111156108c457600080fd5b6108d08b828c016107aa565b94505060a089013567ffffffffffffffff8111156108ed57600080fd5b6108f98b828c016107aa565b93505060c061090a8b828c016107d4565b92505060e061091b8b828c01610795565b9150509295985092959890939650565b60006020828403121561093d57600080fd5b600061094b848285016107d4565b91505092915050565b6000806040838503121561096757600080fd5b6000610975858286016107d4565b925050602061098685828601610795565b9150509250929050565b61099981610c5c565b82525050565b60006109aa82610c40565b6109b48185610c4b565b93506109c4818560208601610c81565b6109cd81610dbc565b840191505092915050565b60006109e5601a83610c4b565b91507f5472616e73616374696f6e20646f6573206e6f742065786973740000000000006000830152602082019050919050565b610a2181610c68565b82525050565b6000610120820190508181036000830152610a42818c61099f565b90508181036020830152610a56818b61099f565b90508181036040830152610a6a818a61099f565b90508181036060830152610a7e818961099f565b90508181036080830152610a92818861099f565b905081810360a0830152610aa6818761099f565b9050610ab560c0830186610a18565b610ac260e0830185610990565b610ad0610100830184610a18565b9a9950505050505050505050565b60006020820190508181036000830152610af7816109d8565b9050919050565b6000602082019050610b136000830184610a18565b92915050565b600061014082019050610b2f600083018d610a18565b8181036020830152610b41818c61099f565b90508181036040830152610b55818b61099f565b90508181036060830152610b69818a61099f565b90508181036080830152610b7d818961099f565b905081810360a0830152610b91818861099f565b905081810360c0830152610ba5818761099f565b9050610bb460e0830186610a18565b610bc2610100830185610990565b610bd0610120830184610a18565b9b9a5050505050505050505050565b6000604051905081810181811067ffffffffffffffff82111715610c0657610c05610d8d565b5b8060405250919050565b600067ffffffffffffffff821115610c2b57610c2a610d8d565b5b601f19601f8301169050602081019050919050565b600081519050919050565b600082825260208201905092915050565b60008115159050919050565b6000819050919050565b82818337600083830152505050565b60005b83811015610c9f578082015181840152602081019050610c84565b83811115610cae576000848401525b50505050565b60006002820490506001821680610ccc57607f821691505b60208210811415610ce057610cdf610d5e565b5b50919050565b6000610cf182610c68565b91507fffffffffffffffffffffffffffffffffffffffffffffffffffffffffffffffff821415610d2457610d23610d2f565b5b600182019050919050565b7f4e487b7100000000000000000000000000000000000000000000000000000000600052601160045260246000fd5b7f4e487b7100000000000000000000000000000000000000000000000000000000600052602260045260246000fd5b7f4e487b7100000000000000000000000000000000000000000000000000000000600052604160045260246000fd5b6000601f19601f8301169050919050565b610dd681610c5c565b8114610de157600080fd5b50565b610ded81610c68565b8114610df857600080fd5b5056fea26469706673582212206552d7ce5c768c7fa388a749f97e97068639444278023ee216f1999813ba13b164736f6c63430008000033",
  "immutableReferences": {},
  "source": "// SPDX-License-Identifier: MIT\r\npragma solidity ^0.8.0;\r\n\r\ncontract AMLContract {\r\n    struct Transaction {\r\n        uint id;\r\n        string transactionId;\r\n        string customerId;\r\n        string customerName;\r\n        string customerAccount;\r\n        string recipientName;\r\n        string recipientAccount;\r\n        uint amount;\r\n        bool flagged;\r\n        uint timestamp;\r\n    }\r\n\r\n    uint public transactionCount;\r\n    mapping(uint => Transaction) public transactions;\r\n\r\n    event TransactionRecorded(\r\n        uint indexed id,\r\n        string transactionId,\r\n        string customerId,\r\n        string customerName,\r\n        string customerAccount,\r\n        string recipientName,\r\n        string recipientAccount,\r\n        uint amount,\r\n        bool flagged,\r\n        uint timestamp\r\n    );\r\n\r\n    function recordTransaction(\r\n        string memory _transactionId,\r\n        string memory _customerId,\r\n        string memory _customerName,\r\n        string memory _customerAccount,\r\n        string memory _recipientName,\r\n        string memory _recipientAccount,\r\n        uint _amount,\r\n        bool _flagged\r\n    ) public {\r\n        transactionCount++;\r\n        transactions[transactionCount] = Transaction(\r\n            transactionCount,\r\n            _transactionId,\r\n            _customerId,\r\n            _customerName,\r\n            _customerAccount,\r\n            _recipientName,\r\n            _recipientAccount,\r\n            _amount,\r\n            _flagged,\r\n            block.timestamp\r\n        );\r\n        emit TransactionRecorded(\r\n            transactionCount,\r\n            _transactionId,\r\n            _customerId,\r\n            _customerName,\r\n            _customerAccount,\r\n            _recipientName,\r\n            _recipientAccount,\r\n            _amount,\r\n            _flagged,\r\n            block.timestamp\r\n        );\r\n    }\r\n\r\n    // Optionally, add functions to update the flag later.\r\n    function updateFlag(uint _id, bool _flagged) public {\r\n        require(_id > 0 && _id <= transactionCount, \"Transaction does not exist\");\r\n        transactions[_id].flagged = _flagged;\r\n    }\r\n}\r\n",
  "sourcePath": "D:\\Projects\\AML-System\\Final\\backend\\contracts\\AMLContract.sol",
  "compiler": {
    "name": "solc",
    "version": "0.8.0+commit.c7dfd78e.Emscripten.clang"
  },
  "schemaVersion": "3.4.16",
  "updatedAt": "2025-02-26T14:52:20.913Z",
  "networkType": "ethereum",
  "devdoc": {
    "kind": "dev",
    "methods": {},
    "version": 1
  },
  "userdoc": {
    "kind": "user",
    "methods": {},
    "version": 1
  }
}